{
  "contractName": "TokenSparse",
  "abi": [
    {
      "inputs": [],
      "stateMutability": "nonpayable",
      "type": "constructor"
    },
    {
      "anonymous": false,
      "inputs": [
        {
          "indexed": true,
          "internalType": "address",
          "name": "account",
          "type": "address"
        },
        {
          "indexed": true,
          "internalType": "address",
          "name": "operator",
          "type": "address"
        },
        {
          "indexed": false,
          "internalType": "bool",
          "name": "approved",
          "type": "bool"
        }
      ],
      "name": "ApprovalForAll",
      "type": "event"
    },
    {
      "anonymous": false,
      "inputs": [
        {
          "indexed": true,
          "internalType": "address",
          "name": "operator",
          "type": "address"
        },
        {
          "indexed": true,
          "internalType": "address",
          "name": "from",
          "type": "address"
        },
        {
          "indexed": true,
          "internalType": "address",
          "name": "to",
          "type": "address"
        },
        {
          "indexed": false,
          "internalType": "uint256[]",
          "name": "ids",
          "type": "uint256[]"
        },
        {
          "indexed": false,
          "internalType": "uint256[]",
          "name": "values",
          "type": "uint256[]"
        }
      ],
      "name": "TransferBatch",
      "type": "event"
    },
    {
      "anonymous": false,
      "inputs": [
        {
          "indexed": true,
          "internalType": "address",
          "name": "operator",
          "type": "address"
        },
        {
          "indexed": true,
          "internalType": "address",
          "name": "from",
          "type": "address"
        },
        {
          "indexed": true,
          "internalType": "address",
          "name": "to",
          "type": "address"
        },
        {
          "indexed": false,
          "internalType": "uint256",
          "name": "id",
          "type": "uint256"
        },
        {
          "indexed": false,
          "internalType": "uint256",
          "name": "value",
          "type": "uint256"
        }
      ],
      "name": "TransferSingle",
      "type": "event"
    },
    {
      "anonymous": false,
      "inputs": [
        {
          "indexed": false,
          "internalType": "string",
          "name": "value",
          "type": "string"
        },
        {
          "indexed": true,
          "internalType": "uint256",
          "name": "id",
          "type": "uint256"
        }
      ],
      "name": "URI",
      "type": "event"
    },
    {
      "inputs": [
        {
          "internalType": "address",
          "name": "account",
          "type": "address"
        },
        {
          "internalType": "uint256",
          "name": "id",
          "type": "uint256"
        }
      ],
      "name": "balanceOf",
      "outputs": [
        {
          "internalType": "uint256",
          "name": "",
          "type": "uint256"
        }
      ],
      "stateMutability": "view",
      "type": "function"
    },
    {
      "inputs": [
        {
          "internalType": "address[]",
          "name": "accounts",
          "type": "address[]"
        },
        {
          "internalType": "uint256[]",
          "name": "ids",
          "type": "uint256[]"
        }
      ],
      "name": "balanceOfBatch",
      "outputs": [
        {
          "internalType": "uint256[]",
          "name": "",
          "type": "uint256[]"
        }
      ],
      "stateMutability": "view",
      "type": "function"
    },
    {
      "inputs": [
        {
          "internalType": "address",
          "name": "account",
          "type": "address"
        },
        {
          "internalType": "address",
          "name": "operator",
          "type": "address"
        }
      ],
      "name": "isApprovedForAll",
      "outputs": [
        {
          "internalType": "bool",
          "name": "",
          "type": "bool"
        }
      ],
      "stateMutability": "view",
      "type": "function"
    },
    {
      "inputs": [
        {
          "internalType": "address",
          "name": "from",
          "type": "address"
        },
        {
          "internalType": "address",
          "name": "to",
          "type": "address"
        },
        {
          "internalType": "uint256[]",
          "name": "ids",
          "type": "uint256[]"
        },
        {
          "internalType": "uint256[]",
          "name": "amounts",
          "type": "uint256[]"
        },
        {
          "internalType": "bytes",
          "name": "data",
          "type": "bytes"
        }
      ],
      "name": "safeBatchTransferFrom",
      "outputs": [],
      "stateMutability": "nonpayable",
      "type": "function"
    },
    {
      "inputs": [
        {
          "internalType": "address",
          "name": "from",
          "type": "address"
        },
        {
          "internalType": "address",
          "name": "to",
          "type": "address"
        },
        {
          "internalType": "uint256",
          "name": "id",
          "type": "uint256"
        },
        {
          "internalType": "uint256",
          "name": "amount",
          "type": "uint256"
        },
        {
          "internalType": "bytes",
          "name": "data",
          "type": "bytes"
        }
      ],
      "name": "safeTransferFrom",
      "outputs": [],
      "stateMutability": "nonpayable",
      "type": "function"
    },
    {
      "inputs": [
        {
          "internalType": "address",
          "name": "operator",
          "type": "address"
        },
        {
          "internalType": "bool",
          "name": "approved",
          "type": "bool"
        }
      ],
      "name": "setApprovalForAll",
      "outputs": [],
      "stateMutability": "nonpayable",
      "type": "function"
    },
    {
      "inputs": [
        {
          "internalType": "bytes4",
          "name": "interfaceId",
          "type": "bytes4"
        }
      ],
      "name": "supportsInterface",
      "outputs": [
        {
          "internalType": "bool",
          "name": "",
          "type": "bool"
        }
      ],
      "stateMutability": "view",
      "type": "function"
    },
    {
      "inputs": [
        {
          "internalType": "uint256",
          "name": "",
          "type": "uint256"
        }
      ],
      "name": "tokenPrice",
      "outputs": [
        {
          "internalType": "uint256",
          "name": "",
          "type": "uint256"
        }
      ],
      "stateMutability": "view",
      "type": "function"
    },
    {
      "inputs": [
        {
          "internalType": "uint256",
          "name": "",
          "type": "uint256"
        }
      ],
      "name": "tokensLeft",
      "outputs": [
        {
          "internalType": "uint256",
          "name": "",
          "type": "uint256"
        }
      ],
      "stateMutability": "view",
      "type": "function"
    },
    {
      "inputs": [
        {
          "internalType": "uint256",
          "name": "",
          "type": "uint256"
        }
      ],
      "name": "uri",
      "outputs": [
        {
          "internalType": "string",
          "name": "",
          "type": "string"
        }
      ],
      "stateMutability": "view",
      "type": "function"
    },
    {
      "inputs": [
        {
          "internalType": "uint256",
          "name": "tokenId",
          "type": "uint256"
        },
        {
          "internalType": "uint256",
          "name": "num",
          "type": "uint256"
        }
      ],
      "name": "UpdateNumToBeMinted",
      "outputs": [],
      "stateMutability": "nonpayable",
      "type": "function"
    },
    {
      "inputs": [
        {
          "internalType": "uint256",
          "name": "tokenId",
          "type": "uint256"
        },
        {
          "internalType": "uint256",
          "name": "priceInWei",
          "type": "uint256"
        }
      ],
      "name": "UpdateTokenPrice",
      "outputs": [],
      "stateMutability": "nonpayable",
      "type": "function"
    },
    {
      "inputs": [
        {
          "internalType": "uint256",
          "name": "tokenId",
          "type": "uint256"
        },
        {
          "internalType": "uint256",
          "name": "num",
          "type": "uint256"
        }
      ],
      "name": "SellToken",
      "outputs": [],
      "stateMutability": "payable",
      "type": "function"
    },
    {
      "inputs": [
        {
          "internalType": "uint256",
          "name": "tokenId",
          "type": "uint256"
        },
        {
          "internalType": "uint256",
          "name": "num",
          "type": "uint256"
        }
      ],
      "name": "mintNewToken",
      "outputs": [],
      "stateMutability": "nonpayable",
      "type": "function"
    }
  ],
  "bytecode": "0x60806040523480156200001157600080fd5b506040518060400160405280600a81526020017f687474703a2f2f746264000000000000000000000000000000000000000000008152506200005981620000a160201b60201c565b5033600360006101000a81548173ffffffffffffffffffffffffffffffffffffffff021916908373ffffffffffffffffffffffffffffffffffffffff160217905550620001d2565b8060029080519060200190620000b9929190620000bd565b5050565b828054620000cb906200016d565b90600052602060002090601f016020900481019282620000ef57600085556200013b565b82601f106200010a57805160ff19168380011785556200013b565b828001600101855582156200013b579182015b828111156200013a5782518255916020019190600101906200011d565b5b5090506200014a91906200014e565b5090565b5b80821115620001695760008160009055506001016200014f565b5090565b600060028204905060018216806200018657607f821691505b602082108114156200019d576200019c620001a3565b5b50919050565b7f4e487b7100000000000000000000000000000000000000000000000000000000600052602260045260246000fd5b612d7480620001e26000396000f3fe6080604052600436106100dc5760003560e01c80635e7446d71161007f578063a6b2d44c11610059578063a6b2d44c146102d2578063d4ddce8a146102fb578063e985e9c514610338578063f242432a14610375576100dc565b80635e7446d71461025057806374cde9581461028d578063a22cb465146102a9576100dc565b80631809419e116100bb5780631809419e146101985780632eb2c2d6146101c15780634a25fdac146101ea5780634e1273f414610213576100dc565b8062fdd58e146100e157806301ffc9a71461011e5780630e89341c1461015b575b600080fd5b3480156100ed57600080fd5b5061010860048036038101906101039190611e0f565b61039e565b60405161011591906124cb565b60405180910390f35b34801561012a57600080fd5b5061014560048036038101906101409190611eb7565b610467565b604051610152919061232e565b60405180910390f35b34801561016757600080fd5b50610182600480360381019061017d9190611f09565b610549565b60405161018f9190612349565b60405180910390f35b3480156101a457600080fd5b506101bf60048036038101906101ba9190611f32565b6105dd565b005b3480156101cd57600080fd5b506101e860048036038101906101e39190611c85565b610653565b005b3480156101f657600080fd5b50610211600480360381019061020c9190611f32565b6106f4565b005b34801561021f57600080fd5b5061023a60048036038101906102359190611e4b565b61078f565b60405161024791906122d5565b60405180910390f35b34801561025c57600080fd5b5061027760048036038101906102729190611f09565b610940565b60405161028491906124cb565b60405180910390f35b6102a760048036038101906102a29190611f32565b610958565b005b3480156102b557600080fd5b506102d060048036038101906102cb9190611dd3565b610a37565b005b3480156102de57600080fd5b506102f960048036038101906102f49190611f32565b610bb8565b005b34801561030757600080fd5b50610322600480360381019061031d9190611f09565b610c66565b60405161032f91906124cb565b60405180910390f35b34801561034457600080fd5b5061035f600480360381019061035a9190611c49565b610c7e565b60405161036c919061232e565b60405180910390f35b34801561038157600080fd5b5061039c60048036038101906103979190611d44565b610d12565b005b60008073ffffffffffffffffffffffffffffffffffffffff168373ffffffffffffffffffffffffffffffffffffffff16141561040f576040517f08c379a0000000000000000000000000000000000000000000000000000000008152600401610406906123ab565b60405180910390fd5b60008083815260200190815260200160002060008473ffffffffffffffffffffffffffffffffffffffff1673ffffffffffffffffffffffffffffffffffffffff16815260200190815260200160002054905092915050565b60007fd9b67a26000000000000000000000000000000000000000000000000000000007bffffffffffffffffffffffffffffffffffffffffffffffffffffffff1916827bffffffffffffffffffffffffffffffffffffffffffffffffffffffff1916148061053257507f0e89341c000000000000000000000000000000000000000000000000000000007bffffffffffffffffffffffffffffffffffffffffffffffffffffffff1916827bffffffffffffffffffffffffffffffffffffffffffffffffffffffff1916145b80610542575061054182610db3565b5b9050919050565b6060600280546105589061276e565b80601f01602080910402602001604051908101604052809291908181526020018280546105849061276e565b80156105d15780601f106105a6576101008083540402835291602001916105d1565b820191906000526020600020905b8154815290600101906020018083116105b457829003601f168201915b50505050509050919050565b600360009054906101000a900473ffffffffffffffffffffffffffffffffffffffff1673ffffffffffffffffffffffffffffffffffffffff163373ffffffffffffffffffffffffffffffffffffffff161461063757600080fd5b8060056000848152602001908152602001600020819055505050565b61065b610e1d565b73ffffffffffffffffffffffffffffffffffffffff168573ffffffffffffffffffffffffffffffffffffffff1614806106a157506106a08561069b610e1d565b610c7e565b5b6106e0576040517f08c379a00000000000000000000000000000000000000000000000000000000081526004016106d79061240b565b60405180910390fd5b6106ed8585858585610e25565b5050505050565b600360009054906101000a900473ffffffffffffffffffffffffffffffffffffffff1673ffffffffffffffffffffffffffffffffffffffff163373ffffffffffffffffffffffffffffffffffffffff161461074e57600080fd5b61078b600360009054906101000a900473ffffffffffffffffffffffffffffffffffffffff16838360405180602001604052806000815250611185565b5050565b606081518351146107d5576040517f08c379a00000000000000000000000000000000000000000000000000000000081526004016107cc9061246b565b60405180910390fd5b6000835167ffffffffffffffff811115610818577f4e487b7100000000000000000000000000000000000000000000000000000000600052604160045260246000fd5b6040519080825280602002602001820160405280156108465781602001602082028036833780820191505090505b50905060005b8451811015610935576108df858281518110610891577f4e487b7100000000000000000000000000000000000000000000000000000000600052603260045260246000fd5b60200260200101518583815181106108d2577f4e487b7100000000000000000000000000000000000000000000000000000000600052603260045260246000fd5b602002602001015161039e565b828281518110610918577f4e487b7100000000000000000000000000000000000000000000000000000000600052603260045260246000fd5b6020026020010181815250508061092e906127d1565b905061084c565b508091505092915050565b60046020528060005260406000206000915090505481565b600560008381526020019081526020016000205434101561097857600080fd5b6000811161098557600080fd5b80600460008481526020019081526020016000205410156109a557600080fd5b610a09600360009054906101000a900473ffffffffffffffffffffffffffffffffffffffff163384846040518060400160405280600381526020017f3078300000000000000000000000000000000000000000000000000000000000815250610d12565b80600460008481526020019081526020016000206000828254610a2c9190612684565b925050819055505050565b8173ffffffffffffffffffffffffffffffffffffffff16610a56610e1d565b73ffffffffffffffffffffffffffffffffffffffff161415610aad576040517f08c379a0000000000000000000000000000000000000000000000000000000008152600401610aa49061244b565b60405180910390fd5b8060016000610aba610e1d565b73ffffffffffffffffffffffffffffffffffffffff1673ffffffffffffffffffffffffffffffffffffffff16815260200190815260200160002060008473ffffffffffffffffffffffffffffffffffffffff1673ffffffffffffffffffffffffffffffffffffffff16815260200190815260200160002060006101000a81548160ff0219169083151502179055508173ffffffffffffffffffffffffffffffffffffffff16610b67610e1d565b73ffffffffffffffffffffffffffffffffffffffff167f17307eab39ab6107e8899845ad3d59bd9653f200f220920489ca2b5937696c3183604051610bac919061232e565b60405180910390a35050565b600360009054906101000a900473ffffffffffffffffffffffffffffffffffffffff1673ffffffffffffffffffffffffffffffffffffffff163373ffffffffffffffffffffffffffffffffffffffff1614610c1257600080fd5b6000600460008481526020019081526020016000205482610c339190612684565b90506000811115610c4957610c4883826106f4565b5b816004600085815260200190815260200160002081905550505050565b60056020528060005260406000206000915090505481565b6000600160008473ffffffffffffffffffffffffffffffffffffffff1673ffffffffffffffffffffffffffffffffffffffff16815260200190815260200160002060008373ffffffffffffffffffffffffffffffffffffffff1673ffffffffffffffffffffffffffffffffffffffff16815260200190815260200160002060009054906101000a900460ff16905092915050565b610d1a610e1d565b73ffffffffffffffffffffffffffffffffffffffff168573ffffffffffffffffffffffffffffffffffffffff161480610d605750610d5f85610d5a610e1d565b610c7e565b5b610d9f576040517f08c379a0000000000000000000000000000000000000000000000000000000008152600401610d96906123cb565b60405180910390fd5b610dac858585858561131b565b5050505050565b60007f01ffc9a7000000000000000000000000000000000000000000000000000000007bffffffffffffffffffffffffffffffffffffffffffffffffffffffff1916827bffffffffffffffffffffffffffffffffffffffffffffffffffffffff1916149050919050565b600033905090565b8151835114610e69576040517f08c379a0000000000000000000000000000000000000000000000000000000008152600401610e609061248b565b60405180910390fd5b600073ffffffffffffffffffffffffffffffffffffffff168473ffffffffffffffffffffffffffffffffffffffff161415610ed9576040517f08c379a0000000000000000000000000000000000000000000000000000000008152600401610ed0906123eb565b60405180910390fd5b6000610ee3610e1d565b9050610ef381878787878761159d565b60005b84518110156110f0576000858281518110610f3a577f4e487b7100000000000000000000000000000000000000000000000000000000600052603260045260246000fd5b602002602001015190506000858381518110610f7f577f4e487b7100000000000000000000000000000000000000000000000000000000600052603260045260246000fd5b60200260200101519050600080600084815260200190815260200160002060008b73ffffffffffffffffffffffffffffffffffffffff1673ffffffffffffffffffffffffffffffffffffffff16815260200190815260200160002054905081811015611020576040517f08c379a00000000000000000000000000000000000000000000000000000000081526004016110179061242b565b60405180910390fd5b81810360008085815260200190815260200160002060008c73ffffffffffffffffffffffffffffffffffffffff1673ffffffffffffffffffffffffffffffffffffffff168152602001908152602001600020819055508160008085815260200190815260200160002060008b73ffffffffffffffffffffffffffffffffffffffff1673ffffffffffffffffffffffffffffffffffffffff16815260200190815260200160002060008282546110d5919061262e565b92505081905550505050806110e9906127d1565b9050610ef6565b508473ffffffffffffffffffffffffffffffffffffffff168673ffffffffffffffffffffffffffffffffffffffff168273ffffffffffffffffffffffffffffffffffffffff167f4a39dc06d4c0dbc64b70af90fd698a233a518aa5d07e595d983b8c0526c8f7fb87876040516111679291906122f7565b60405180910390a461117d8187878787876115a5565b505050505050565b600073ffffffffffffffffffffffffffffffffffffffff168473ffffffffffffffffffffffffffffffffffffffff1614156111f5576040517f08c379a00000000000000000000000000000000000000000000000000000000081526004016111ec906124ab565b60405180910390fd5b60006111ff610e1d565b9050611220816000876112118861178c565b61121a8861178c565b8761159d565b8260008086815260200190815260200160002060008773ffffffffffffffffffffffffffffffffffffffff1673ffffffffffffffffffffffffffffffffffffffff168152602001908152602001600020600082825461127f919061262e565b925050819055508473ffffffffffffffffffffffffffffffffffffffff16600073ffffffffffffffffffffffffffffffffffffffff168273ffffffffffffffffffffffffffffffffffffffff167fc3d58168c5ae7397731d063d5bbf3d657854427343f4c083240f7aacaa2d0f6287876040516112fd9291906124e6565b60405180910390a461131481600087878787611852565b5050505050565b600073ffffffffffffffffffffffffffffffffffffffff168473ffffffffffffffffffffffffffffffffffffffff16141561138b576040517f08c379a0000000000000000000000000000000000000000000000000000000008152600401611382906123eb565b60405180910390fd5b6000611395610e1d565b90506113b58187876113a68861178c565b6113af8861178c565b8761159d565b600080600086815260200190815260200160002060008873ffffffffffffffffffffffffffffffffffffffff1673ffffffffffffffffffffffffffffffffffffffff1681526020019081526020016000205490508381101561144c576040517f08c379a00000000000000000000000000000000000000000000000000000000081526004016114439061242b565b60405180910390fd5b83810360008087815260200190815260200160002060008973ffffffffffffffffffffffffffffffffffffffff1673ffffffffffffffffffffffffffffffffffffffff168152602001908152602001600020819055508360008087815260200190815260200160002060008873ffffffffffffffffffffffffffffffffffffffff1673ffffffffffffffffffffffffffffffffffffffff1681526020019081526020016000206000828254611501919061262e565b925050819055508573ffffffffffffffffffffffffffffffffffffffff168773ffffffffffffffffffffffffffffffffffffffff168373ffffffffffffffffffffffffffffffffffffffff167fc3d58168c5ae7397731d063d5bbf3d657854427343f4c083240f7aacaa2d0f62888860405161157e9291906124e6565b60405180910390a4611594828888888888611852565b50505050505050565b505050505050565b6115c48473ffffffffffffffffffffffffffffffffffffffff16611a39565b15611784578373ffffffffffffffffffffffffffffffffffffffff1663bc197c8187878686866040518663ffffffff1660e01b815260040161160a959493929190612213565b602060405180830381600087803b15801561162457600080fd5b505af192505050801561165557506040513d601f19601f820116820180604052508101906116529190611ee0565b60015b6116fb576116616128a7565b806308c379a014156116be5750611676612c4c565b8061168157506116c0565b806040517f08c379a00000000000000000000000000000000000000000000000000000000081526004016116b59190612349565b60405180910390fd5b505b6040517f08c379a00000000000000000000000000000000000000000000000000000000081526004016116f29061236b565b60405180910390fd5b63bc197c8160e01b7bffffffffffffffffffffffffffffffffffffffffffffffffffffffff1916817bffffffffffffffffffffffffffffffffffffffffffffffffffffffff191614611782576040517f08c379a00000000000000000000000000000000000000000000000000000000081526004016117799061238b565b60405180910390fd5b505b505050505050565b60606000600167ffffffffffffffff8111156117d1577f4e487b7100000000000000000000000000000000000000000000000000000000600052604160045260246000fd5b6040519080825280602002602001820160405280156117ff5781602001602082028036833780820191505090505b509050828160008151811061183d577f4e487b7100000000000000000000000000000000000000000000000000000000600052603260045260246000fd5b60200260200101818152505080915050919050565b6118718473ffffffffffffffffffffffffffffffffffffffff16611a39565b15611a31578373ffffffffffffffffffffffffffffffffffffffff1663f23a6e6187878686866040518663ffffffff1660e01b81526004016118b795949392919061227b565b602060405180830381600087803b1580156118d157600080fd5b505af192505050801561190257506040513d601f19601f820116820180604052508101906118ff9190611ee0565b60015b6119a85761190e6128a7565b806308c379a0141561196b5750611923612c4c565b8061192e575061196d565b806040517f08c379a00000000000000000000000000000000000000000000000000000000081526004016119629190612349565b60405180910390fd5b505b6040517f08c379a000000000000000000000000000000000000000000000000000000000815260040161199f9061236b565b60405180910390fd5b63f23a6e6160e01b7bffffffffffffffffffffffffffffffffffffffffffffffffffffffff1916817bffffffffffffffffffffffffffffffffffffffffffffffffffffffff191614611a2f576040517f08c379a0000000000000000000000000000000000000000000000000000000008152600401611a269061238b565b60405180910390fd5b505b505050505050565b600080823b905060008111915050919050565b6000611a5f611a5a84612534565b61250f565b90508083825260208201905082856020860282011115611a7e57600080fd5b60005b85811015611aae5781611a948882611b62565b845260208401935060208301925050600181019050611a81565b5050509392505050565b6000611acb611ac684612560565b61250f565b90508083825260208201905082856020860282011115611aea57600080fd5b60005b85811015611b1a5781611b008882611c34565b845260208401935060208301925050600181019050611aed565b5050509392505050565b6000611b37611b328461258c565b61250f565b905082815260208101848484011115611b4f57600080fd5b611b5a84828561272c565b509392505050565b600081359050611b7181612ce2565b92915050565b600082601f830112611b8857600080fd5b8135611b98848260208601611a4c565b91505092915050565b600082601f830112611bb257600080fd5b8135611bc2848260208601611ab8565b91505092915050565b600081359050611bda81612cf9565b92915050565b600081359050611bef81612d10565b92915050565b600081519050611c0481612d10565b92915050565b600082601f830112611c1b57600080fd5b8135611c2b848260208601611b24565b91505092915050565b600081359050611c4381612d27565b92915050565b60008060408385031215611c5c57600080fd5b6000611c6a85828601611b62565b9250506020611c7b85828601611b62565b9150509250929050565b600080600080600060a08688031215611c9d57600080fd5b6000611cab88828901611b62565b9550506020611cbc88828901611b62565b945050604086013567ffffffffffffffff811115611cd957600080fd5b611ce588828901611ba1565b935050606086013567ffffffffffffffff811115611d0257600080fd5b611d0e88828901611ba1565b925050608086013567ffffffffffffffff811115611d2b57600080fd5b611d3788828901611c0a565b9150509295509295909350565b600080600080600060a08688031215611d5c57600080fd5b6000611d6a88828901611b62565b9550506020611d7b88828901611b62565b9450506040611d8c88828901611c34565b9350506060611d9d88828901611c34565b925050608086013567ffffffffffffffff811115611dba57600080fd5b611dc688828901611c0a565b9150509295509295909350565b60008060408385031215611de657600080fd5b6000611df485828601611b62565b9250506020611e0585828601611bcb565b9150509250929050565b60008060408385031215611e2257600080fd5b6000611e3085828601611b62565b9250506020611e4185828601611c34565b9150509250929050565b60008060408385031215611e5e57600080fd5b600083013567ffffffffffffffff811115611e7857600080fd5b611e8485828601611b77565b925050602083013567ffffffffffffffff811115611ea157600080fd5b611ead85828601611ba1565b9150509250929050565b600060208284031215611ec957600080fd5b6000611ed784828501611be0565b91505092915050565b600060208284031215611ef257600080fd5b6000611f0084828501611bf5565b91505092915050565b600060208284031215611f1b57600080fd5b6000611f2984828501611c34565b91505092915050565b60008060408385031215611f4557600080fd5b6000611f5385828601611c34565b9250506020611f6485828601611c34565b9150509250929050565b6000611f7a83836121f5565b60208301905092915050565b611f8f816126b8565b82525050565b6000611fa0826125cd565b611faa81856125fb565b9350611fb5836125bd565b8060005b83811015611fe6578151611fcd8882611f6e565b9750611fd8836125ee565b925050600181019050611fb9565b5085935050505092915050565b611ffc816126ca565b82525050565b600061200d826125d8565b612017818561260c565b935061202781856020860161273b565b612030816128c9565b840191505092915050565b6000612046826125e3565b612050818561261d565b935061206081856020860161273b565b612069816128c9565b840191505092915050565b600061208160348361261d565b915061208c826128e7565b604082019050919050565b60006120a460288361261d565b91506120af82612936565b604082019050919050565b60006120c7602b8361261d565b91506120d282612985565b604082019050919050565b60006120ea60298361261d565b91506120f5826129d4565b604082019050919050565b600061210d60258361261d565b915061211882612a23565b604082019050919050565b600061213060328361261d565b915061213b82612a72565b604082019050919050565b6000612153602a8361261d565b915061215e82612ac1565b604082019050919050565b600061217660298361261d565b915061218182612b10565b604082019050919050565b600061219960298361261d565b91506121a482612b5f565b604082019050919050565b60006121bc60288361261d565b91506121c782612bae565b604082019050919050565b60006121df60218361261d565b91506121ea82612bfd565b604082019050919050565b6121fe81612722565b82525050565b61220d81612722565b82525050565b600060a0820190506122286000830188611f86565b6122356020830187611f86565b81810360408301526122478186611f95565b9050818103606083015261225b8185611f95565b9050818103608083015261226f8184612002565b90509695505050505050565b600060a0820190506122906000830188611f86565b61229d6020830187611f86565b6122aa6040830186612204565b6122b76060830185612204565b81810360808301526122c98184612002565b90509695505050505050565b600060208201905081810360008301526122ef8184611f95565b905092915050565b600060408201905081810360008301526123118185611f95565b905081810360208301526123258184611f95565b90509392505050565b60006020820190506123436000830184611ff3565b92915050565b60006020820190508181036000830152612363818461203b565b905092915050565b6000602082019050818103600083015261238481612074565b9050919050565b600060208201905081810360008301526123a481612097565b9050919050565b600060208201905081810360008301526123c4816120ba565b9050919050565b600060208201905081810360008301526123e4816120dd565b9050919050565b6000602082019050818103600083015261240481612100565b9050919050565b6000602082019050818103600083015261242481612123565b9050919050565b6000602082019050818103600083015261244481612146565b9050919050565b6000602082019050818103600083015261246481612169565b9050919050565b600060208201905081810360008301526124848161218c565b9050919050565b600060208201905081810360008301526124a4816121af565b9050919050565b600060208201905081810360008301526124c4816121d2565b9050919050565b60006020820190506124e06000830184612204565b92915050565b60006040820190506124fb6000830185612204565b6125086020830184612204565b9392505050565b600061251961252a565b905061252582826127a0565b919050565b6000604051905090565b600067ffffffffffffffff82111561254f5761254e612878565b5b602082029050602081019050919050565b600067ffffffffffffffff82111561257b5761257a612878565b5b602082029050602081019050919050565b600067ffffffffffffffff8211156125a7576125a6612878565b5b6125b0826128c9565b9050602081019050919050565b6000819050602082019050919050565b600081519050919050565b600081519050919050565b600081519050919050565b6000602082019050919050565b600082825260208201905092915050565b600082825260208201905092915050565b600082825260208201905092915050565b600061263982612722565b915061264483612722565b9250827fffffffffffffffffffffffffffffffffffffffffffffffffffffffffffffffff038211156126795761267861281a565b5b828201905092915050565b600061268f82612722565b915061269a83612722565b9250828210156126ad576126ac61281a565b5b828203905092915050565b60006126c382612702565b9050919050565b60008115159050919050565b60007fffffffff0000000000000000000000000000000000000000000000000000000082169050919050565b600073ffffffffffffffffffffffffffffffffffffffff82169050919050565b6000819050919050565b82818337600083830152505050565b60005b8381101561275957808201518184015260208101905061273e565b83811115612768576000848401525b50505050565b6000600282049050600182168061278657607f821691505b6020821081141561279a57612799612849565b5b50919050565b6127a9826128c9565b810181811067ffffffffffffffff821117156127c8576127c7612878565b5b80604052505050565b60006127dc82612722565b91507fffffffffffffffffffffffffffffffffffffffffffffffffffffffffffffffff82141561280f5761280e61281a565b5b600182019050919050565b7f4e487b7100000000000000000000000000000000000000000000000000000000600052601160045260246000fd5b7f4e487b7100000000000000000000000000000000000000000000000000000000600052602260045260246000fd5b7f4e487b7100000000000000000000000000000000000000000000000000000000600052604160045260246000fd5b600060033d11156128c65760046000803e6128c36000516128da565b90505b90565b6000601f19601f8301169050919050565b60008160e01c9050919050565b7f455243313135353a207472616e7366657220746f206e6f6e204552433131353560008201527f526563656976657220696d706c656d656e746572000000000000000000000000602082015250565b7f455243313135353a204552433131353552656365697665722072656a6563746560008201527f6420746f6b656e73000000000000000000000000000000000000000000000000602082015250565b7f455243313135353a2062616c616e636520717565727920666f7220746865207a60008201527f65726f2061646472657373000000000000000000000000000000000000000000602082015250565b7f455243313135353a2063616c6c6572206973206e6f74206f776e6572206e6f7260008201527f20617070726f7665640000000000000000000000000000000000000000000000602082015250565b7f455243313135353a207472616e7366657220746f20746865207a65726f20616460008201527f6472657373000000000000000000000000000000000000000000000000000000602082015250565b7f455243313135353a207472616e736665722063616c6c6572206973206e6f742060008201527f6f776e6572206e6f7220617070726f7665640000000000000000000000000000602082015250565b7f455243313135353a20696e73756666696369656e742062616c616e636520666f60008201527f72207472616e7366657200000000000000000000000000000000000000000000602082015250565b7f455243313135353a2073657474696e6720617070726f76616c2073746174757360008201527f20666f722073656c660000000000000000000000000000000000000000000000602082015250565b7f455243313135353a206163636f756e747320616e6420696473206c656e67746860008201527f206d69736d617463680000000000000000000000000000000000000000000000602082015250565b7f455243313135353a2069647320616e6420616d6f756e7473206c656e6774682060008201527f6d69736d61746368000000000000000000000000000000000000000000000000602082015250565b7f455243313135353a206d696e7420746f20746865207a65726f2061646472657360008201527f7300000000000000000000000000000000000000000000000000000000000000602082015250565b600060443d1015612c5c57612cdf565b612c6461252a565b60043d036004823e80513d602482011167ffffffffffffffff82111715612c8c575050612cdf565b808201805167ffffffffffffffff811115612caa5750505050612cdf565b80602083010160043d038501811115612cc7575050505050612cdf565b612cd6826020018501866127a0565b82955050505050505b90565b612ceb816126b8565b8114612cf657600080fd5b50565b612d02816126ca565b8114612d0d57600080fd5b50565b612d19816126d6565b8114612d2457600080fd5b50565b612d3081612722565b8114612d3b57600080fd5b5056fea2646970667358221220ec4f26f401acde264dc8fdfbb873dbfacba7ee602b540c36589ba550eb2e337c64736f6c63430008010033",
  "immutableReferences": {},
  "source": "pragma solidity ^0.8.0;\n\nimport \"@openzeppelin/contracts/token/ERC1155/ERC1155.sol\";\n\ncontract TokenSparse is ERC1155{\n\taddress admin;\n\t\n\tmapping(uint=>uint) public tokensLeft; // id of token => max of a token available\n\n\tmapping(uint=>uint) public tokenPrice;\n\n\tconstructor () ERC1155(\"http://tbd\"){\n\t\tadmin = msg.sender;\n\t}\n\n\tmodifier IsAdmin{\n\t\trequire(msg.sender == admin);\n\t\t_;\n\t}\n\n\t//This is update, NOT add to existing\n\tfunction UpdateNumToBeMinted(uint tokenId, uint num) public IsAdmin{\n\t\tuint moreTokensRequired = num - tokensLeft[tokenId] ;\n\t\tif (moreTokensRequired > 0) {\n\t\t\tmintNewToken(tokenId, moreTokensRequired);\n\t\t}\n\t\ttokensLeft[tokenId] = num;\n\t}\n\n\tfunction UpdateTokenPrice(uint tokenId, uint priceInWei) public IsAdmin{\n\t\ttokenPrice[tokenId] = priceInWei;\n\t}\n\n\tfunction SellToken(uint tokenId, uint num) public payable{\n\t\trequire(msg.value >= tokenPrice[tokenId]);\n\t\trequire(num > 0);\n\t\trequire(tokensLeft[tokenId] >= num);\n\t\tsafeTransferFrom(admin, msg.sender, tokenId, num, \"0x0\");\n\t\ttokensLeft[tokenId] -= num;\n\t}\n\n\tfunction mintNewToken(uint tokenId, uint num) public IsAdmin{\n\t\t_mint(admin, tokenId, num, \"\");\n\t}\n}",
  "sourcePath": "/Users/anupamkumar/blockchain/TokenSparse/contracts/TokenSparse.sol",
  "compiler": {
    "name": "solc",
    "version": "0.8.1+commit.df193b15.Emscripten.clang"
  },
  "schemaVersion": "3.4.1",
  "updatedAt": "2021-07-08T17:44:43.669Z",
  "devdoc": {
    "kind": "dev",
    "methods": {
      "balanceOf(address,uint256)": {
        "details": "See {IERC1155-balanceOf}. Requirements: - `account` cannot be the zero address."
      },
      "balanceOfBatch(address[],uint256[])": {
        "details": "See {IERC1155-balanceOfBatch}. Requirements: - `accounts` and `ids` must have the same length."
      },
      "isApprovedForAll(address,address)": {
        "details": "See {IERC1155-isApprovedForAll}."
      },
      "safeBatchTransferFrom(address,address,uint256[],uint256[],bytes)": {
        "details": "See {IERC1155-safeBatchTransferFrom}."
      },
      "safeTransferFrom(address,address,uint256,uint256,bytes)": {
        "details": "See {IERC1155-safeTransferFrom}."
      },
      "setApprovalForAll(address,bool)": {
        "details": "See {IERC1155-setApprovalForAll}."
      },
      "supportsInterface(bytes4)": {
        "details": "See {IERC165-supportsInterface}."
      },
      "uri(uint256)": {
        "details": "See {IERC1155MetadataURI-uri}. This implementation returns the same URI for *all* token types. It relies on the token type ID substitution mechanism https://eips.ethereum.org/EIPS/eip-1155#metadata[defined in the EIP]. Clients calling this function must replace the `\\{id\\}` substring with the actual token type ID."
      }
    },
    "version": 1
  },
  "userdoc": {
    "kind": "user",
    "methods": {},
    "version": 1
  }
}